S01C0000547261666669632D4C696768742D5369676E616C2E7372656399
S11300000C942A000C9434000C9434000C943400A6
S11300100C9434000C9434000C9434000C9434008C
S11300200C9434000C9434000C9434000C9434007C
S11300300C9434000C9434000C9434000C9434006C
S11300400C9434000C9434000C9434000C9434005C
S11300500C94340011241FBECFE5D8E0DEBFCDBF21
S11300600E9436000C94A7000C9400008FEF8ABB0A
S113007084BB11BAB89AB99ABA9ABB9A809B09C040
S1130080809BFCCFD89ADB9AA99AAD9A8099FACF33
S1130090F5CF819B09C0819BF1CFD89AAB9ADC9AAA
S11300A0AA9A8199FACFEACF829B09C0829BE6CFB4
S11300B0A89AAB9AD99ADD9A8299FACFDFCF839B1B
S11300C009C0839BDBCFA89ADB9AAC9ADA9A83990E
S11300D0FACFD4CFD89ADB9AA99AAD9A2FE78AE1BE
S11300E096E0215080409040E1F700C000001BBA28
S11300F015BAD89AAB9ADC9AAA9A2FE78AE196E0C5
S1130100215080409040E1F700C000001BBA15BAAE
S1130110A89AAB9AD99ADD9A2FE78AE196E0215002
S113012080409040E1F700C000001BBA15BAA89ABD
S1130130DB9AAC9ADA9A2FE78AE196E02150804064
S11301409040E1F700C000001BBA15BA97CFF894AD
S1050150FFCFDB
S9030000FC
